{
  "contractName": "hrm",
  "abi": [
    {
      "constant": false,
      "inputs": [],
      "name": "renounceOwnership",
      "outputs": [],
      "payable": false,
      "stateMutability": "nonpayable",
      "type": "function"
    },
    {
      "constant": true,
      "inputs": [],
      "name": "owner",
      "outputs": [
        {
          "name": "",
          "type": "address"
        }
      ],
      "payable": false,
      "stateMutability": "view",
      "type": "function"
    },
    {
      "constant": true,
      "inputs": [],
      "name": "isOwner",
      "outputs": [
        {
          "name": "",
          "type": "bool"
        }
      ],
      "payable": false,
      "stateMutability": "view",
      "type": "function"
    },
    {
      "constant": false,
      "inputs": [
        {
          "name": "newOwner",
          "type": "address"
        }
      ],
      "name": "transferOwnership",
      "outputs": [],
      "payable": false,
      "stateMutability": "nonpayable",
      "type": "function"
    },
    {
      "anonymous": false,
      "inputs": [
        {
          "indexed": false,
          "name": "eid",
          "type": "bytes32"
        }
      ],
      "name": "NewEmployeeAdded",
      "type": "event"
    },
    {
      "anonymous": false,
      "inputs": [
        {
          "indexed": false,
          "name": "eid",
          "type": "bytes32"
        },
        {
          "indexed": false,
          "name": "day",
          "type": "uint16"
        }
      ],
      "name": "CompensationLeaveAdded",
      "type": "event"
    },
    {
      "anonymous": false,
      "inputs": [
        {
          "indexed": false,
          "name": "eid",
          "type": "bytes32"
        },
        {
          "indexed": false,
          "name": "day",
          "type": "uint16"
        }
      ],
      "name": "ApproveLeave",
      "type": "event"
    },
    {
      "anonymous": false,
      "inputs": [
        {
          "indexed": false,
          "name": "from",
          "type": "bytes32"
        },
        {
          "indexed": false,
          "name": "to",
          "type": "bytes32"
        },
        {
          "indexed": false,
          "name": "day",
          "type": "uint256"
        }
      ],
      "name": "TransferLeave",
      "type": "event"
    },
    {
      "anonymous": false,
      "inputs": [
        {
          "indexed": true,
          "name": "previousOwner",
          "type": "address"
        },
        {
          "indexed": true,
          "name": "newOwner",
          "type": "address"
        }
      ],
      "name": "OwnershipTransferred",
      "type": "event"
    },
    {
      "constant": false,
      "inputs": [
        {
          "name": "eid",
          "type": "bytes32"
        }
      ],
      "name": "addNewEmployee",
      "outputs": [],
      "payable": false,
      "stateMutability": "nonpayable",
      "type": "function"
    },
    {
      "constant": true,
      "inputs": [
        {
          "name": "eid",
          "type": "bytes32"
        }
      ],
      "name": "checkLeaveBalance",
      "outputs": [
        {
          "name": "",
          "type": "uint16"
        }
      ],
      "payable": false,
      "stateMutability": "view",
      "type": "function"
    },
    {
      "constant": false,
      "inputs": [
        {
          "name": "eid",
          "type": "bytes32"
        },
        {
          "name": "day",
          "type": "uint16"
        }
      ],
      "name": "addLeave",
      "outputs": [],
      "payable": false,
      "stateMutability": "nonpayable",
      "type": "function"
    },
    {
      "constant": false,
      "inputs": [
        {
          "name": "eid",
          "type": "bytes32"
        },
        {
          "name": "day",
          "type": "uint16"
        }
      ],
      "name": "approveLeave",
      "outputs": [],
      "payable": false,
      "stateMutability": "nonpayable",
      "type": "function"
    },
    {
      "constant": false,
      "inputs": [
        {
          "name": "from_eid",
          "type": "bytes32"
        },
        {
          "name": "to_eid",
          "type": "bytes32"
        },
        {
          "name": "day",
          "type": "uint16"
        }
      ],
      "name": "transferLeave",
      "outputs": [],
      "payable": false,
      "stateMutability": "nonpayable",
      "type": "function"
    }
  ],
  "bytecode": "0x6080604052336000806101000a81548173ffffffffffffffffffffffffffffffffffffffff021916908373ffffffffffffffffffffffffffffffffffffffff1602179055506000809054906101000a900473ffffffffffffffffffffffffffffffffffffffff1673ffffffffffffffffffffffffffffffffffffffff16600073ffffffffffffffffffffffffffffffffffffffff167f8be0079c531659141344cd1fd0a4f28419497f9722a3daafe3b4186f6b6457e060405160405180910390a3610fe8806100cf6000396000f300608060405260043610610099576000357c0100000000000000000000000000000000000000000000000000000000900463ffffffff168063163151a31461009e5780634d3e9088146100eb578063715018a6146101385780638da5cb5b1461014f5780638f32d59b146101a65780639683eb1d146101d5578063cbb6fc1214610214578063d4848bb514610245578063f2fde38b14610284575b600080fd5b3480156100aa57600080fd5b506100e960048036038101908080356000191690602001909291908035600019169060200190929190803561ffff1690602001909291905050506102c7565b005b3480156100f757600080fd5b5061011a6004803603810190808035600019169060200190929190505050610667565b604051808261ffff1661ffff16815260200191505060405180910390f35b34801561014457600080fd5b5061014d61069a565b005b34801561015b57600080fd5b506101646107d5565b604051808273ffffffffffffffffffffffffffffffffffffffff1673ffffffffffffffffffffffffffffffffffffffff16815260200191505060405180910390f35b3480156101b257600080fd5b506101bb6107fe565b604051808215151515815260200191505060405180910390f35b3480156101e157600080fd5b506102126004803603810190808035600019169060200190929190803561ffff169060200190929190505050610855565b005b34801561022057600080fd5b506102436004803603810190808035600019169060200190929190505050610a7b565b005b34801561025157600080fd5b506102826004803603810190808035600019169060200190929190803561ffff169060200190929190505050610c15565b005b34801561029057600080fd5b506102c5600480360381019080803573ffffffffffffffffffffffffffffffffffffffff169060200190929190505050610d59565b005b60016000846000191660001916815260200190815260200160002060009054906101000a900461ffff1661ffff168161ffff1611151515610370576040517f08c379a000000000000000000000000000000000000000000000000000000000815260040180806020018281038252601f8152602001807f53656e646572206c656176652062616c616e6365206973206c6f77202121210081525060200191505060405180910390fd5b600060016000846000191660001916815260200190815260200160002060009054906101000a900461ffff1661ffff1611151561043b576040517f08c379a00000000000000000000000000000000000000000000000000000000081526004018080602001828103825260408152602001807f5265636965766572206c656176652062616c616e636520656974686572207a6581526020017f726f206f72207573657220646f6573206e6f742072656769737465722021212181525060400191505060405180910390fd5b610e4261047e8260016000866000191660001916815260200190815260200160002060009054906101000a900461ffff1661ffff16610de190919063ffffffff16565b61ffff1610151561051d576040517f08c379a00000000000000000000000000000000000000000000000000000000081526004018080602001828103825260228152602001807f4c656176652062616c616e636520696e206e6f74206d6f7265207468616e203381526020017f363500000000000000000000000000000000000000000000000000000000000081525060400191505060405180910390fd5b61055d8160016000866000191660001916815260200190815260200160002060009054906101000a900461ffff1661ffff16610e0a90919063ffffffff16565b60016000856000191660001916815260200190815260200160002060006101000a81548161ffff021916908361ffff1602179055506105d28160016000856000191660001916815260200190815260200160002060009054906101000a900461ffff1661ffff16610de190919063ffffffff16565b60016000846000191660001916815260200190815260200160002060006101000a81548161ffff021916908361ffff1602179055507ff1c24cadf7d32c9fea2784e526448b83106c83f0be48ff08a1f52e0c57dd686683838360405180846000191660001916815260200183600019166000191681526020018261ffff168152602001935050505060405180910390a1505050565b600060016000836000191660001916815260200190815260200160002060009054906101000a900461ffff169050919050565b6106a26107fe565b1515610716576040517f08c379a000000000000000000000000000000000000000000000000000000000815260040180806020018281038252601c8152602001807f4f6e6c79204f776e65722063616e2063616c6c2074686973202121210000000081525060200191505060405180910390fd5b600073ffffffffffffffffffffffffffffffffffffffff166000809054906101000a900473ffffffffffffffffffffffffffffffffffffffff1673ffffffffffffffffffffffffffffffffffffffff167f8be0079c531659141344cd1fd0a4f28419497f9722a3daafe3b4186f6b6457e060405160405180910390a360008060006101000a81548173ffffffffffffffffffffffffffffffffffffffff021916908373ffffffffffffffffffffffffffffffffffffffff160217905550565b60008060009054906101000a900473ffffffffffffffffffffffffffffffffffffffff16905090565b60008060009054906101000a900473ffffffffffffffffffffffffffffffffffffffff1673ffffffffffffffffffffffffffffffffffffffff163373ffffffffffffffffffffffffffffffffffffffff1614905090565b61085d6107fe565b15156108d1576040517f08c379a000000000000000000000000000000000000000000000000000000000815260040180806020018281038252601c8152602001807f4f6e6c79204f776e65722063616e2063616c6c2074686973202121210000000081525060200191505060405180910390fd5b610e426109148260016000866000191660001916815260200190815260200160002060009054906101000a900461ffff1661ffff16610de190919063ffffffff16565b61ffff161015156109b3576040517f08c379a00000000000000000000000000000000000000000000000000000000081526004018080602001828103825260228152602001807f4c656176652062616c616e636520696e206e6f74206d6f7265207468616e203381526020017f363500000000000000000000000000000000000000000000000000000000000081525060400191505060405180910390fd5b6109f38160016000856000191660001916815260200190815260200160002060009054906101000a900461ffff1661ffff16610de190919063ffffffff16565b60016000846000191660001916815260200190815260200160002060006101000a81548161ffff021916908361ffff1602179055507f18b955620f22887960c09fc5c1605511d9f123d07cb10583ac323202cbff5d6e82826040518083600019166000191681526020018261ffff1661ffff1681526020019250505060405180910390a15050565b610a836107fe565b1515610af7576040517f08c379a000000000000000000000000000000000000000000000000000000000815260040180806020018281038252601c8152602001807f4f6e6c79204f776e65722063616e2063616c6c2074686973202121210000000081525060200191505060405180910390fd5b600060016000836000191660001916815260200190815260200160002060009054906101000a900461ffff1661ffff16141515610b9c576040517f08c379a000000000000000000000000000000000000000000000000000000000815260040180806020018281038252601f8152602001807f456d706c6f79656520416c72656164792052656769737465726564202121210081525060200191505060405180910390fd5b60c860016000836000191660001916815260200190815260200160002060006101000a81548161ffff021916908361ffff1602179055507f4da8f8db1df254b96d09363d2caf70cfefbd57ccbdb25211e9943be6c9e923728160405180826000191660001916815260200191505060405180910390a150565b610c1d6107fe565b1515610c91576040517f08c379a000000000000000000000000000000000000000000000000000000000815260040180806020018281038252601c8152602001807f4f6e6c79204f776e65722063616e2063616c6c2074686973202121210000000081525060200191505060405180910390fd5b610cd18160016000856000191660001916815260200190815260200160002060009054906101000a900461ffff1661ffff16610e0a90919063ffffffff16565b60016000846000191660001916815260200190815260200160002060006101000a81548161ffff021916908361ffff1602179055507fc74cefa06a140b604b279875f5380d6c5046ef1f14062bc1958fbde63b0bfcc982826040518083600019166000191681526020018261ffff1661ffff1681526020019250505060405180910390a15050565b610d616107fe565b1515610dd5576040517f08c379a000000000000000000000000000000000000000000000000000000000815260040180806020018281038252601c8152602001807f4f6e6c79204f776e65722063616e2063616c6c2074686973202121210000000081525060200191505060405180910390fd5b610dde81610e33565b50565b60008082840190508361ffff168161ffff1610151515610e0057600080fd5b8091505092915050565b6000808361ffff168361ffff1611151515610e2457600080fd5b82840390508091505092915050565b600073ffffffffffffffffffffffffffffffffffffffff168173ffffffffffffffffffffffffffffffffffffffff1614151515610efe576040517f08c379a00000000000000000000000000000000000000000000000000000000081526004018080602001828103825260258152602001807f4e6577206f776e65722061646472657373206973206e6f742070726f7669646581526020017f642021212100000000000000000000000000000000000000000000000000000081525060400191505060405180910390fd5b8073ffffffffffffffffffffffffffffffffffffffff166000809054906101000a900473ffffffffffffffffffffffffffffffffffffffff1673ffffffffffffffffffffffffffffffffffffffff167f8be0079c531659141344cd1fd0a4f28419497f9722a3daafe3b4186f6b6457e060405160405180910390a3806000806101000a81548173ffffffffffffffffffffffffffffffffffffffff021916908373ffffffffffffffffffffffffffffffffffffffff160217905550505600a165627a7a7230582071e4bcf4de2139f727f16f34ac40ba5aa3d2e8a9a908a7bea99c38eb68e05f8c0029",
  "source": "pragma solidity >=0.4.0 <0.6.0;\n\n/**\n * @title Ownable\n * @dev The Ownable contract has an owner address, and provides basic authorization control\n * functions, this simplifies the implementation of \"user permissions\".\n */\ncontract Ownable {\n    address private _owner;\n\n    event OwnershipTransferred(\n      address indexed previousOwner,\n      address indexed newOwner\n    );\n\n    /**\n    * @dev The Ownable constructor sets the original `owner` of the contract to the sender\n    * account.\n    */\n    constructor() internal {\n        _owner = msg.sender;\n        emit OwnershipTransferred(address(0), _owner);\n    }\n\n    /**\n    * @return the address of the owner.\n    */\n    function owner() public view returns(address) {\n        return _owner;\n    }\n\n    /**\n    * @dev Throws if called by any account other than the owner.\n    */\n    modifier onlyOwner() {\n        require(isOwner(),\"Only Owner can call this !!!\");\n        _;\n    }\n\n    /**\n    * @return true if `msg.sender` is the owner of the contract.\n    */\n    function isOwner() public view returns(bool) {\n        return msg.sender == _owner;\n    }\n\n    /**\n    * @dev Allows the current owner to relinquish control of the contract.\n    * @notice Renouncing to ownership will leave the contract without an owner.\n    * It will not be possible to call the functions with the `onlyOwner`\n    * modifier anymore.\n    */\n    function renounceOwnership() public onlyOwner {\n        emit OwnershipTransferred(_owner, address(0));\n        _owner = address(0);\n    }\n\n    /**\n    * @dev Allows the current owner to transfer control of the contract to a newOwner.\n    * @param newOwner The address to transfer ownership to.\n    */\n    function transferOwnership(address newOwner) public onlyOwner {\n        _transferOwnership(newOwner);\n    }\n\n    /**\n    * @dev Transfers control of the contract to a newOwner.\n    * @param newOwner The address to transfer ownership to.\n    */\n    function _transferOwnership(address newOwner) internal {\n        require(newOwner != address(0),\"New owner address is not provided !!!\");\n        emit OwnershipTransferred(_owner, newOwner);\n        _owner = newOwner;\n    }\n}\n\nlibrary SafeMath {\n\n    /**\n    * @dev Multiplies two numbers, reverts on overflow.\n    */\n    function mul(uint16 a, uint16 b) internal pure returns (uint16) {\n        // Gas optimization: this is cheaper than requiring 'a' not being zero, but the\n        // benefit is lost if 'b' is also tested.\n        // See: https://github.com/OpenZeppelin/openzeppelin-solidity/pull/522\n        if (a == 0) {\n            return 0;\n        }\n\n        uint16 c = a * b;\n        require(c / a == b);\n\n        return c;\n    }\n\n    /**\n    * @dev Integer division of two numbers truncating the quotient, reverts on division by zero.\n    */\n    function div(uint16 a, uint16 b) internal pure returns (uint16) {\n        require(b > 0); // Solidity only automatically asserts when dividing by 0\n        uint16 c = a / b;\n        // assert(a == b * c + a % b); // There is no case in which this doesn't hold\n        return c;\n    }\n\n    /**\n    * @dev Subtracts two numbers, reverts on overflow (i.e. if subtrahend is greater than minuend).\n    */\n    function sub(uint16 a, uint16 b) internal pure returns (uint16) {\n        require(b <= a);\n        uint16 c = a - b;\n        return c;\n    }\n\n    /**\n    * @dev Adds two numbers, reverts on overflow.\n    */\n    function add(uint16 a, uint16 b) internal pure returns (uint16) {\n        uint16 c = a + b;\n        require(c >= a);\n        return c;\n    }\n\n    /**\n    * @dev Divides two numbers and returns the remainder (unsigned integer modulo),\n    * reverts when dividing by zero.\n    */\n    function mod(uint16 a, uint16 b) internal pure returns (uint16) {\n        require(b != 0);\n        return a % b;\n    }\n}\n\ncontract hrm is Ownable{\n    using SafeMath for uint16;\n    mapping(bytes32=>uint16) EmployeeLeaveBalance;\n\n    event NewEmployeeAdded(bytes32 eid);\n    event CompensationLeaveAdded(bytes32 eid, uint16 day);\n    event ApproveLeave(bytes32 eid, uint16 day);\n    event TransferLeave(bytes32 from, bytes32 to, uint day);\n\n    function addNewEmployee(bytes32 eid) public onlyOwner  {\n        require(EmployeeLeaveBalance[eid]==0,\"Employee Already Registered !!!\");\n        EmployeeLeaveBalance[eid] = 200;\n        emit NewEmployeeAdded(eid);\n    }\n    \n    function checkLeaveBalance(bytes32 eid) public view returns(uint16){\n        return EmployeeLeaveBalance[eid];\n    }\n    \n    function addLeave(bytes32 eid, uint16 day) public onlyOwner {\n        require(EmployeeLeaveBalance[eid].add(day) < 3650, \"Leave balance in not more than 365\");\n        EmployeeLeaveBalance[eid] = EmployeeLeaveBalance[eid].add(day);\n        emit CompensationLeaveAdded(eid,day);\n    }\n    \n    function approveLeave(bytes32 eid,uint16 day) public onlyOwner {\n        EmployeeLeaveBalance[eid] = EmployeeLeaveBalance[eid].sub(day);\n        emit ApproveLeave(eid,day);\n    }\n    \n    function transferLeave(bytes32 from_eid,bytes32 to_eid,uint16 day) public {\n        require(day<=EmployeeLeaveBalance[from_eid], \"Sender leave balance is low !!!\");\n        require(EmployeeLeaveBalance[to_eid]>0, \"Reciever leave balance either zero or user does not register !!!\");\n        require(EmployeeLeaveBalance[to_eid].add(day) < 3650, \"Leave balance in not more than 365\");\n        EmployeeLeaveBalance[from_eid] = EmployeeLeaveBalance[from_eid].sub(day);\n        EmployeeLeaveBalance[to_eid] = EmployeeLeaveBalance[to_eid].add(day);\n        emit TransferLeave(from_eid, to_eid, day);\n    }\n}",
  "sourcePath": "/home/celebal/companyWork/hrm/backend/contracts/hrm.sol",
  "compiler": {
    "name": "solc",
    "version": "0.4.24+commit.e67f0147.Emscripten.clang"
  },
  "schemaVersion": "2.0.1",
  "updatedAt": "2018-12-06T05:04:49.783Z"
}